{
  "contractName": "TyrePressureMonitor",
  "abi": [
    {
      "anonymous": false,
      "inputs": [
        {
          "indexed": false,
          "internalType": "uint8",
          "name": "tyreIndex",
          "type": "uint8"
        },
        {
          "indexed": false,
          "internalType": "uint16",
          "name": "currentPressure",
          "type": "uint16"
        }
      ],
      "name": "TyrePressureAlert",
      "type": "event"
    },
    {
      "anonymous": false,
      "inputs": [
        {
          "indexed": false,
          "internalType": "uint8",
          "name": "tyreIndex",
          "type": "uint8"
        },
        {
          "indexed": false,
          "internalType": "uint16",
          "name": "newPressure",
          "type": "uint16"
        }
      ],
      "name": "TyrePressureUpdated",
      "type": "event"
    },
    {
      "inputs": [],
      "name": "tyrePressureAlertThreshold",
      "outputs": [
        {
          "internalType": "uint16",
          "name": "",
          "type": "uint16"
        }
      ],
      "stateMutability": "view",
      "type": "function",
      "constant": true
    },
    {
      "inputs": [
        {
          "internalType": "uint8",
          "name": "",
          "type": "uint8"
        },
        {
          "internalType": "uint256",
          "name": "",
          "type": "uint256"
        }
      ],
      "name": "tyrePressureHistory",
      "outputs": [
        {
          "internalType": "uint16",
          "name": "",
          "type": "uint16"
        }
      ],
      "stateMutability": "view",
      "type": "function",
      "constant": true
    },
    {
      "inputs": [
        {
          "internalType": "uint8",
          "name": "",
          "type": "uint8"
        }
      ],
      "name": "tyrePressureReadings",
      "outputs": [
        {
          "internalType": "uint16",
          "name": "",
          "type": "uint16"
        }
      ],
      "stateMutability": "view",
      "type": "function",
      "constant": true
    },
    {
      "inputs": [
        {
          "internalType": "uint16",
          "name": "PresThres",
          "type": "uint16"
        }
      ],
      "name": "setPressureThreshold",
      "outputs": [],
      "stateMutability": "nonpayable",
      "type": "function"
    },
    {
      "inputs": [],
      "name": "getTyrePressureThreshold",
      "outputs": [
        {
          "internalType": "uint256",
          "name": "",
          "type": "uint256"
        }
      ],
      "stateMutability": "view",
      "type": "function",
      "constant": true
    },
    {
      "inputs": [
        {
          "internalType": "uint8",
          "name": "tyreIndex",
          "type": "uint8"
        },
        {
          "internalType": "uint16",
          "name": "newPressure",
          "type": "uint16"
        }
      ],
      "name": "updateTyrePressure",
      "outputs": [],
      "stateMutability": "nonpayable",
      "type": "function"
    },
    {
      "inputs": [
        {
          "internalType": "uint8",
          "name": "tyreIndex",
          "type": "uint8"
        }
      ],
      "name": "getTyrePressure",
      "outputs": [
        {
          "internalType": "uint16",
          "name": "",
          "type": "uint16"
        }
      ],
      "stateMutability": "view",
      "type": "function",
      "constant": true
    },
    {
      "inputs": [
        {
          "internalType": "uint8",
          "name": "tyreIndex",
          "type": "uint8"
        }
      ],
      "name": "getTyrePressureHistory",
      "outputs": [
        {
          "internalType": "uint16[]",
          "name": "",
          "type": "uint16[]"
        }
      ],
      "stateMutability": "view",
      "type": "function",
      "constant": true
    }
  ],
  "bytecode": "0x608060405234801561001057600080fd5b50610903806100206000396000f3fe608060405234801561001057600080fd5b50600436106100885760003560e01c8063b7b93f521161005b578063b7b93f5214610113578063bbf5d44514610143578063ef382dc514610173578063fda082b81461019157610088565b8063368e51621461008d57806339cdf309146100bd5780635d18bfd4146100db57806362b58113146100f7575b600080fd5b6100a760048036038101906100a2919061059a565b6101c1565b6040516100b49190610693565b60405180910390f35b6100c56102a2565b6040516100d291906106c4565b60405180910390f35b6100f560048036038101906100f0919061070b565b6102b6565b005b610111600480360381019061010c9190610738565b6102d6565b005b61012d6004803603810190610128919061059a565b610460565b60405161013a91906106c4565b60405180910390f35b61015d6004803603810190610158919061059a565b6104d8565b60405161016a91906106c4565b60405180910390f35b61017b6104f9565b6040516101889190610791565b60405180910390f35b6101ab60048036038101906101a691906107d8565b610515565b6040516101b891906106c4565b60405180910390f35b60608160048160ff161061020a576040517f08c379a000000000000000000000000000000000000000000000000000000000815260040161020190610875565b60405180910390fd5b600260008460ff1660ff16815260200190815260200160002080548060200260200160405190810160405280929190818152602001828054801561029557602002820191906000526020600020906000905b82829054906101000a900461ffff1661ffff168152602001906002019060208260010104928301926001038202915080841161025c5790505b5050505050915050919050565b600160009054906101000a900461ffff1681565b80600160006101000a81548161ffff021916908361ffff16021790555050565b8160048160ff161061031d576040517f08c379a000000000000000000000000000000000000000000000000000000000815260040161031490610875565b60405180910390fd5b60008060008560ff1660ff16815260200190815260200160002060009054906101000a900461ffff169050826000808660ff1660ff16815260200190815260200160002060006101000a81548161ffff021916908361ffff160217905550600260008560ff1660ff1681526020019081526020016000208390806001815401808255809150506001900390600052602060002090601091828204019190066002029091909190916101000a81548161ffff021916908361ffff160217905550600160009054906101000a900461ffff1661ffff168361ffff1610801561041b5750600160009054906101000a900461ffff1661ffff168161ffff1610155b1561045a577f321f0de0a96d6b74cb45b67d00204ae0ca9a0736c44b2815dd5330262b746e6284846040516104519291906108a4565b60405180910390a15b50505050565b60008160048160ff16106104a9576040517f08c379a00000000000000000000000000000000000000000000000000000000081526004016104a090610875565b60405180910390fd5b6000808460ff1660ff16815260200190815260200160002060009054906101000a900461ffff16915050919050565b60006020528060005260406000206000915054906101000a900461ffff1681565b6000600160009054906101000a900461ffff1661ffff16905090565b6002602052816000526040600020818154811061053157600080fd5b9060005260206000209060109182820401919006600202915091509054906101000a900461ffff1681565b600080fd5b600060ff82169050919050565b61057781610561565b811461058257600080fd5b50565b6000813590506105948161056e565b92915050565b6000602082840312156105b0576105af61055c565b5b60006105be84828501610585565b91505092915050565b600081519050919050565b600082825260208201905092915050565b6000819050602082019050919050565b600061ffff82169050919050565b61060a816105f3565b82525050565b600061061c8383610601565b60208301905092915050565b6000602082019050919050565b6000610640826105c7565b61064a81856105d2565b9350610655836105e3565b8060005b8381101561068657815161066d8882610610565b975061067883610628565b925050600181019050610659565b5085935050505092915050565b600060208201905081810360008301526106ad8184610635565b905092915050565b6106be816105f3565b82525050565b60006020820190506106d960008301846106b5565b92915050565b6106e8816105f3565b81146106f357600080fd5b50565b600081359050610705816106df565b92915050565b6000602082840312156107215761072061055c565b5b600061072f848285016106f6565b91505092915050565b6000806040838503121561074f5761074e61055c565b5b600061075d85828601610585565b925050602061076e858286016106f6565b9150509250929050565b6000819050919050565b61078b81610778565b82525050565b60006020820190506107a66000830184610782565b92915050565b6107b581610778565b81146107c057600080fd5b50565b6000813590506107d2816107ac565b92915050565b600080604083850312156107ef576107ee61055c565b5b60006107fd85828601610585565b925050602061080e858286016107c3565b9150509250929050565b600082825260208201905092915050565b7f496e76616c6964207479726520696e6465780000000000000000000000000000600082015250565b600061085f601283610818565b915061086a82610829565b602082019050919050565b6000602082019050818103600083015261088e81610852565b9050919050565b61089e81610561565b82525050565b60006040820190506108b96000830185610895565b6108c660208301846106b5565b939250505056fea26469706673582212204ab02b306985dd48532836ac0963cf1ecb79bba245fbf3f5d9ab1229fb186b7164736f6c63430008110033",
  "immutableReferences": {},
  "source": "// SPDX-License-Identifier: MIT\r\npragma solidity ^0.8.0;\r\n\r\ncontract TyrePressureMonitor \r\n{\r\n    // Stores the current tyre pressure reading for each tyre\r\n    mapping(uint8 => uint16) public tyrePressureReadings;\r\n    //mapping(uint8 => uint16) public tyrePressureAlertThresholds;\r\n    uint16 public tyrePressureAlertThreshold;\r\n    mapping(uint8 => uint16[]) public tyrePressureHistory;\r\n\r\n\r\n    // Event emitted when a tyre's pressure reading is updated\r\n    event TyrePressureUpdated(uint8 tyreIndex, uint16 newPressure);\r\n    event TyrePressureAlert(uint8 tyreIndex, uint16 currentPressure);\r\n\r\n    // Modifier that ensures the tyre index is valid (0-3)\r\n    modifier validTyreIndex(uint8 tyreIndex) \r\n    {\r\n        require(tyreIndex < 4, \"Invalid tyre index\");\r\n        _;\r\n    }\r\n    function setPressureThreshold(uint16 PresThres) public\r\n    {\r\n        tyrePressureAlertThreshold = PresThres;\r\n    }\r\n\r\n    function getTyrePressureThreshold() public view returns (uint) \r\n    {\r\n        // Return the current threshold value\r\n        return tyrePressureAlertThreshold;\r\n    }\r\n\r\n    // Function to update the tyre pressure reading for a given tyre\r\n    function updateTyrePressure(uint8 tyreIndex, uint16 newPressure) public validTyreIndex(tyreIndex) \r\n    {\r\n        uint16 oldPressure = tyrePressureReadings[tyreIndex];\r\n        tyrePressureReadings[tyreIndex] = newPressure;\r\n        tyrePressureHistory[tyreIndex].push(newPressure);\r\n        // Check if the new pressure falls below the alert threshold\r\n        if (newPressure < tyrePressureAlertThreshold && oldPressure >= tyrePressureAlertThreshold)\r\n        {\r\n            emit TyrePressureAlert(tyreIndex, newPressure);\r\n        }\r\n    }\r\n\r\n    // Function to retrieve the current tyre pressure reading for a given tyre\r\n    function getTyrePressure(uint8 tyreIndex) public view validTyreIndex(tyreIndex) returns (uint16) \r\n    {\r\n        return tyrePressureReadings[tyreIndex];\r\n    }\r\n\r\n    function getTyrePressureHistory(uint8 tyreIndex) public view validTyreIndex(tyreIndex) returns (uint16[] memory)\r\n    {\r\n    return tyrePressureHistory[tyreIndex];\r\n    }\r\n}\r\n\r\n",
  "sourcePath": "D:\\College\\Winter Sem 22-23\\Project\\Blockchain\\TyrePressureManager\\Tyre-Pressure-Manager\\contracts\\TyrePressureMontior.sol",
  "compiler": {
    "name": "solc",
    "version": "0.8.17+commit.8df45f5f.Emscripten.clang"
  },
  "schemaVersion": "3.4.10",
  "updatedAt": "2023-03-30T11:01:25.718Z",
  "networkType": "ethereum",
  "devdoc": {
    "kind": "dev",
    "methods": {},
    "version": 1
  },
  "userdoc": {
    "kind": "user",
    "methods": {},
    "version": 1
  }
}