{
  "contractName": "TyrePressureMonitor",
  "abi": [
    {
      "anonymous": false,
      "inputs": [
        {
          "indexed": false,
          "internalType": "uint8",
          "name": "tyreIndex",
          "type": "uint8"
        },
        {
          "indexed": false,
          "internalType": "uint16",
          "name": "currentPressure",
          "type": "uint16"
        }
      ],
      "name": "TyrePressureAlert",
      "type": "event"
    },
    {
      "anonymous": false,
      "inputs": [
        {
          "indexed": false,
          "internalType": "uint8",
          "name": "tyreIndex",
          "type": "uint8"
        },
        {
          "indexed": false,
          "internalType": "uint16",
          "name": "newPressure",
          "type": "uint16"
        }
      ],
      "name": "TyrePressureUpdated",
      "type": "event"
    },
    {
      "inputs": [],
      "name": "tyrePressureAlertThreshold",
      "outputs": [
        {
          "internalType": "uint16",
          "name": "",
          "type": "uint16"
        }
      ],
      "stateMutability": "view",
      "type": "function",
      "constant": true
    },
    {
      "inputs": [
        {
          "internalType": "uint8",
          "name": "",
          "type": "uint8"
        },
        {
          "internalType": "uint256",
          "name": "",
          "type": "uint256"
        }
      ],
      "name": "tyrePressureHistory",
      "outputs": [
        {
          "internalType": "uint16",
          "name": "",
          "type": "uint16"
        }
      ],
      "stateMutability": "view",
      "type": "function",
      "constant": true
    },
    {
      "inputs": [
        {
          "internalType": "uint8",
          "name": "",
          "type": "uint8"
        }
      ],
      "name": "tyrePressureReadings",
      "outputs": [
        {
          "internalType": "uint16",
          "name": "",
          "type": "uint16"
        }
      ],
      "stateMutability": "view",
      "type": "function",
      "constant": true
    },
    {
      "inputs": [
        {
          "internalType": "uint16",
          "name": "PresThres",
          "type": "uint16"
        }
      ],
      "name": "setPressureThreshold",
      "outputs": [],
      "stateMutability": "nonpayable",
      "type": "function"
    },
    {
      "inputs": [],
      "name": "getTyrePressureThreshold",
      "outputs": [
        {
          "internalType": "uint256",
          "name": "",
          "type": "uint256"
        }
      ],
      "stateMutability": "view",
      "type": "function",
      "constant": true
    },
    {
      "inputs": [
        {
          "internalType": "uint8",
          "name": "tyreIndex",
          "type": "uint8"
        },
        {
          "internalType": "uint16",
          "name": "newPressure",
          "type": "uint16"
        }
      ],
      "name": "updateTyrePressure",
      "outputs": [],
      "stateMutability": "nonpayable",
      "type": "function"
    },
    {
      "inputs": [
        {
          "internalType": "uint8",
          "name": "tyreIndex",
          "type": "uint8"
        }
      ],
      "name": "getTyrePressure",
      "outputs": [
        {
          "internalType": "uint16",
          "name": "",
          "type": "uint16"
        }
      ],
      "stateMutability": "view",
      "type": "function",
      "constant": true
    },
    {
      "inputs": [
        {
          "internalType": "uint8",
          "name": "tyreIndex",
          "type": "uint8"
        }
      ],
      "name": "getTyrePressureHistory",
      "outputs": [
        {
          "internalType": "uint16[]",
          "name": "",
          "type": "uint16[]"
        }
      ],
      "stateMutability": "view",
      "type": "function",
      "constant": true
    }
  ],
  "bytecode": "0x6080604052600a600160006101000a81548161ffff021916908361ffff16021790555034801561002e57600080fd5b5061091d8061003e6000396000f3fe608060405234801561001057600080fd5b50600436106100885760003560e01c8063b7b93f521161005b578063b7b93f5214610113578063bbf5d44514610143578063ef382dc514610173578063fda082b81461019157610088565b8063368e51621461008d57806339cdf309146100bd5780635d18bfd4146100db57806362b58113146100f7575b600080fd5b6100a760048036038101906100a291906105b4565b6101c1565b6040516100b491906106ad565b60405180910390f35b6100c56102a2565b6040516100d291906106de565b60405180910390f35b6100f560048036038101906100f09190610725565b6102b6565b005b610111600480360381019061010c9190610752565b6102d6565b005b61012d600480360381019061012891906105b4565b61047a565b60405161013a91906106de565b60405180910390f35b61015d600480360381019061015891906105b4565b6104f2565b60405161016a91906106de565b60405180910390f35b61017b610513565b60405161018891906107ab565b60405180910390f35b6101ab60048036038101906101a691906107f2565b61052f565b6040516101b891906106de565b60405180910390f35b60608160048160ff161061020a576040517f08c379a00000000000000000000000000000000000000000000000000000000081526004016102019061088f565b60405180910390fd5b600260008460ff1660ff16815260200190815260200160002080548060200260200160405190810160405280929190818152602001828054801561029557602002820191906000526020600020906000905b82829054906101000a900461ffff1661ffff168152602001906002019060208260010104928301926001038202915080841161025c5790505b5050505050915050919050565b600160009054906101000a900461ffff1681565b80600160006101000a81548161ffff021916908361ffff16021790555050565b8160048160ff161061031d576040517f08c379a00000000000000000000000000000000000000000000000000000000081526004016103149061088f565b60405180910390fd5b60008060008560ff1660ff16815260200190815260200160002060009054906101000a900461ffff169050826000808660ff1660ff16815260200190815260200160002060006101000a81548161ffff021916908361ffff160217905550600260008560ff1660ff1681526020019081526020016000208390806001815401808255809150506001900390600052602060002090601091828204019190066002029091909190916101000a81548161ffff021916908361ffff160217905550600160009054906101000a900461ffff1661ffff168361ffff16101561043a577f321f0de0a96d6b74cb45b67d00204ae0ca9a0736c44b2815dd5330262b746e62848460405161042d9291906108be565b60405180910390a1610474565b7fd44e94713abc2ab2fd73c9568c536c1427f6267e898ece7a3349c7f1917dba7d848460405161046b9291906108be565b60405180910390a15b50505050565b60008160048160ff16106104c3576040517f08c379a00000000000000000000000000000000000000000000000000000000081526004016104ba9061088f565b60405180910390fd5b6000808460ff1660ff16815260200190815260200160002060009054906101000a900461ffff16915050919050565b60006020528060005260406000206000915054906101000a900461ffff1681565b6000600160009054906101000a900461ffff1661ffff16905090565b6002602052816000526040600020818154811061054b57600080fd5b9060005260206000209060109182820401919006600202915091509054906101000a900461ffff1681565b600080fd5b600060ff82169050919050565b6105918161057b565b811461059c57600080fd5b50565b6000813590506105ae81610588565b92915050565b6000602082840312156105ca576105c9610576565b5b60006105d88482850161059f565b91505092915050565b600081519050919050565b600082825260208201905092915050565b6000819050602082019050919050565b600061ffff82169050919050565b6106248161060d565b82525050565b6000610636838361061b565b60208301905092915050565b6000602082019050919050565b600061065a826105e1565b61066481856105ec565b935061066f836105fd565b8060005b838110156106a0578151610687888261062a565b975061069283610642565b925050600181019050610673565b5085935050505092915050565b600060208201905081810360008301526106c7818461064f565b905092915050565b6106d88161060d565b82525050565b60006020820190506106f360008301846106cf565b92915050565b6107028161060d565b811461070d57600080fd5b50565b60008135905061071f816106f9565b92915050565b60006020828403121561073b5761073a610576565b5b600061074984828501610710565b91505092915050565b6000806040838503121561076957610768610576565b5b60006107778582860161059f565b925050602061078885828601610710565b9150509250929050565b6000819050919050565b6107a581610792565b82525050565b60006020820190506107c0600083018461079c565b92915050565b6107cf81610792565b81146107da57600080fd5b50565b6000813590506107ec816107c6565b92915050565b6000806040838503121561080957610808610576565b5b60006108178582860161059f565b9250506020610828858286016107dd565b9150509250929050565b600082825260208201905092915050565b7f496e76616c6964207479726520696e6465780000000000000000000000000000600082015250565b6000610879601283610832565b915061088482610843565b602082019050919050565b600060208201905081810360008301526108a88161086c565b9050919050565b6108b88161057b565b82525050565b60006040820190506108d360008301856108af565b6108e060208301846106cf565b939250505056fea264697066735822122037c7368c38333a41e2ba81c001dd17a4c31dc7818d7e2fb8fa08982f2d4078dd64736f6c63430008110033",
  "immutableReferences": {},
  "source": "// SPDX-License-Identifier: MIT\r\npragma solidity ^0.8.0;\r\n\r\ncontract TyrePressureMonitor \r\n{\r\n    // Stores the current tyre pressure reading for each tyre\r\n    mapping(uint8 => uint16) public tyrePressureReadings;\r\n    //mapping(uint8 => uint16) public tyrePressureAlertThresholds;\r\n    uint16 public tyrePressureAlertThreshold = 10;\r\n    mapping(uint8 => uint16[]) public tyrePressureHistory;\r\n\r\n\r\n    // Event emitted when a tyre's pressure reading is updated\r\n    event TyrePressureUpdated(uint8 tyreIndex, uint16 newPressure);\r\n    event TyrePressureAlert(uint8 tyreIndex, uint16 currentPressure);\r\n\r\n    // Modifier that ensures the tyre index is valid (0-3)\r\n    modifier validTyreIndex(uint8 tyreIndex) \r\n    {\r\n        require(tyreIndex < 4, \"Invalid tyre index\");\r\n        _;\r\n    }\r\n    function setPressureThreshold(uint16 PresThres) public\r\n    {\r\n        tyrePressureAlertThreshold = PresThres;\r\n    }\r\n\r\n    function getTyrePressureThreshold() public view returns (uint) \r\n    {\r\n        // Return the current threshold value\r\n        return tyrePressureAlertThreshold;\r\n    }\r\n\r\n    // Function to update the tyre pressure reading for a given tyre\r\n    function updateTyrePressure(uint8 tyreIndex, uint16 newPressure) public validTyreIndex(tyreIndex) \r\n    {\r\n        uint16 oldPressure = tyrePressureReadings[tyreIndex];\r\n        tyrePressureReadings[tyreIndex] = newPressure;\r\n        tyrePressureHistory[tyreIndex].push(newPressure);\r\n        // Check if the new pressure falls below the alert threshold\r\n        if (newPressure < tyrePressureAlertThreshold)\r\n        {\r\n            emit TyrePressureAlert(tyreIndex, newPressure);\r\n        }\r\n        else\r\n        {\r\n            emit TyrePressureUpdated(tyreIndex, newPressure);\r\n        }\r\n    }\r\n\r\n    // Function to retrieve the current tyre pressure reading for a given tyre\r\n    function getTyrePressure(uint8 tyreIndex) public view validTyreIndex(tyreIndex) returns (uint16) \r\n    {\r\n        return tyrePressureReadings[tyreIndex];\r\n    }\r\n\r\n    function getTyrePressureHistory(uint8 tyreIndex) public view validTyreIndex(tyreIndex) returns (uint16[] memory)\r\n    {\r\n        return tyrePressureHistory[tyreIndex];\r\n    }\r\n}\r\n\r\n",
  "sourcePath": "D:\\College\\Winter Sem 22-23\\Project\\Blockchain\\TyrePressureManager\\Tyre-Pressure-Manager\\contracts\\TyrePressureMonitor.sol",
  "compiler": {
    "name": "solc",
    "version": "0.8.17+commit.8df45f5f.Emscripten.clang"
  },
  "schemaVersion": "3.4.10",
  "updatedAt": "2023-04-04T18:10:57.551Z",
  "networkType": "ethereum",
  "devdoc": {
    "kind": "dev",
    "methods": {},
    "version": 1
  },
  "userdoc": {
    "kind": "user",
    "methods": {},
    "version": 1
  }
}